:100F5700456C656374726F6E696300566F74696E72
:100F670067204D616368696E65005031283129201B
:100F7700503228322900503328332920503428345E
:100F87002920233D526573005468616E6B20596FA9
:100F9700752100506C6561736520576169742E2E49
:100FA7002E00503120205032202050332020503442
:100FB7000049742773206120544945210057696E01
:100FC7006E65722069733A205000257500313233FF
:0D0FD7004123353633373839322A30343172
:0A1171000808000000000000000064
:100E9200121122C2B57D02E4FF12113D7BFF7A0FCF
:100EA20079571210BF7D017F0112113D7BFF7A0F2E
:100EB20079621210BF7FD07E071210787F01121163
:100EC20051E4FDFF12113D7BFF7A0F79711210BFC1
:100ED200E4FD7F0112113D7BFF7A0F797D1210BF75
:100EE200120DC5EF24DD603624F1601414601B146A
:100EF2006022240370C60509E509702705088023CE
:100F0200050BE50B701D050A8019050DE50D701323
:100F1200050C800F050FE50F7009050E8005120CF8
:100F2200E080FE1210E27F011211517D03E4FF12F4
:100F3200113D7BFF7A0F798F1210BF7D017F011265
:100F4200113D7BFF7A0F799A1210BF7FDC7E05126A
:050F52001078020EBE44
:1010E200E4F522F523D2B5121074C2B512107405BC
:1010F20023E52370020522C39496E522940040E57D
:0111020022CA
:100CE00074FFF522F523E4F524F525F526F5277F95
:100CF00001121151E4FDFF12113D7BFF7A0F79A91A
:100D00001210BFE4FD7F0112113DAF09AE081211B0
:100D1000037D047F0112113DAF0BAE0A1211037D5A
:100D2000087F0112113DAF0DAE0C1211037D0C7F37
:100D30000112113DAF0FAE0E1211037FA07E0F12F4
:100D40001078E4FFFEEF25E02408F8E6FC08E6FD55
:100D5000D39523E5226480F8EC64809840148C22BB
:100D60008D23EF2401F525E43EF524E4F526F5274F
:100D7000801BEDB52317ECB52213D3E5239400E5D2
:100D8000226480948040067526007527010FBF00FD
:100D9000010EEF64044E70AD7F011211517D02E42B
:100DA000FF12113DE527640145267BFF70077A0F8E
:100DB00079B80210BF7A0F79C41210BFE52524302C
:040DC000FF121161AC
:010DC400220C
:100DC50078227C007D007BFF7A0F79D47E007F102E
:100DD500120C2C7F647E00121078C290D291D292B0
:100DE500D2932094063094FDAF22222095063095AB
:100DF500FDAF23222096063096FDAF2422209706CC
:100E05003097FDAF2522D290C291D292D2932094F1
:100E1500063094FDAF26222095063095FDAF27229A
:100E25002096063096FDAF28222097063097FDAF15
:100E35002922D290D291C292D2932094063094FD69
:100E4500AF2A222095063095FDAF2B22209606303D
:100E550096FDAF2C222097063097FDAF2D22D2901C
:100E6500D291D292C2932094063094FDAF2E2220C7
:100E750095063095FDAF2F222096063096FDAF30B2
:0C0E850022309703020DDF3097FDAF31E3
:010E9100223E
:101122007F147E001210787F381211517F0C121139
:0B113200517F011211517F0602115184
:101151008FA0C2B2121070C2B47F027E000210785A
:101161008FA0D2B2121070C2B47F027E000210783A
:1010BF008B2E8A2F8930AB2EAA2FA930120C52FFFC
:1010CF00601012116174012530F530E4352FF52FC2
:0310DF0080E42288
:10113D00EF7007ED2480F5288005ED24C0F528AF6C
:04114D002802115112
:101103007531FF75320F7533D18E348F357B007A8D
:0F11130000792812085C7B007A0079280210BF4F
:08107000C2B3D2B47F017E007F
:10107800E4FDFCC3ED9FEC9E5015E4FBFA0BBB00AE
:0F108800010AEB64784A70F50DBD00010C80E49D
:011097002236
:03000000020FE408
:0C0FE400787FE4F6D8FD75814102102BE7
:100B5C00E709F608DFFA8046E709F208DFFA803E7B
:100B6C0088828C83E709F0A3DFFA8032E309F60868
:100B7C00DFFA8078E309F208DFFA807088828C83D0
:100B8C00E309F0A3DFFA806489828A83E0A3F60884
:100B9C00DFFA805889828A83E0A3F208DFFA804C5E
:100BAC0080D280FA80C680D4806980F28033801035
:100BBC0080A680EA809A80A880DA80E280CA80339E
:100BCC0089828A83ECFAE493A3C8C582C8CCC58316
:100BDC00CCF0A3C8C582C8CCC583CCDFE9DEE780E6
:100BEC000D89828A83E493A3F608DFF9ECFAA9F065
:100BFC00EDFB2289828A83ECFAE0A3C8C582C8CCBB
:100C0C00C583CCF0A3C8C582C8CCC583CCDFEADED3
:100C1C00E880DB89828A83E493A3F208DFF980CC35
:100C2C0088F0EF60010E4E60C388F0ED2402B4042E
:100C3C000050B9F582EB2402B4040050AF232345D5
:060C4C008223900BAC7343
:100C5200BB010689828A83E0225002E722BBFE02A0
:090C6200E32289828A83E49322D3
:10080000E53D2431F8E6053D22782E3007027831A7
:10081000E475F001120CAA020C522000EB7F2ED2DC
:10082000008018EF540F2490D43440D4FF30040BD0
:10083000EF24BFB41A0050032461FFE53E600215A7
:100840003E0541E5417002054030070D782EE47504
:10085000F001120CAAEF020C980210987403D20750
:100860008003E4C207F53D8B2E8A2F8930E4F53EE4
:10087000F540F541E53E60077F2012083B80F575A5
:100880003FFFC201C200C202C203C205C206C208C3
:10089000120809FF700D3007057F0012084CAF41A8
:1008A000AE4022B4255FC2D5C204120809FF24D08D
:1008B000B40A00501A75F00A783E30D50508B6FF24
:1008C0000106C6A426F620D5047002D20380D924DE
:1008D000CFB41A00EF5004C2E5D204020A4CD20190
:1008E00080C6D20080C0D20280BCD2D580BAD205E8
:1008F00080B47F2012083B2002077401B53E0040FF
:10090000F1120800FF12083B020874D208D20680D8
:1009100095120800FB120800FA120800F94A4B7001
:1009200006791D7A0B7BFF20022EE53E602A7E00B1
:100930008E82758300120C6B60060EEE653F70F0C0
:10094000C2D5EBC0E0EAC0E0E9C0E0EE120A93D005
:10095000E0F9D0E0FAD0E0FB120C52FF60AAEBC045
:10096000E0EAC0E0E9C0E012083BD0E02401F9D0A1
:10097000E03400FAD0E0FBE53F0460DCD53FD980ED
:10098000877BFF7A0A798FD202809C791080027966
:1009900008C206C2088008D2D5790A8004790AC242
:1009A000D5E53F047002F53FE4FAFDFEFF120800B2
:1009B000FC7B08200113120800FD7B1030000A1296
:1009C0000800FE120800FF7B20EC3382D592D55040
:1009D00013C3E43000069FFFE49EFEE42001039D64
:1009E000FDE49CFCE4CBF8C201EC700CCFCECDCC86
:1009F000E824F8F870F38017C3EF33FFEE33FEED11
:100A000033FDEC33FCEB33FB994002FB0FD8E9EBF1
:100A1000300105F8D0E0C448B201C0E00AEC4D4E08
:100A20004F78207B0070C2EAB53F0040BCC0E012A6
:100A30000A95D0F0D0E0200104C4C0E0C4B201C0E7
:100A4000F0120824D0F0D5F0EB020874120CBA09A9
:100A50001153098B5808E24C08DE42098F4F099761
:0F0A60004409974908F743099D550981460981C3
:100A6F00450981470B3D5008E62D08EA2E090D2B4D
:100A7F0008EE23090B200B262A08A64800000905BB
:100A8F003F3F3F00790AA2D5200314300509B91062
:100A9F00020404B9080104A2D52006025001042063
:100AAF0002689202B53E005034C0E07F2030031937
:100ABF007F30A20272067205500F120AECC202C2F8
:100ACF0006C205C2087F30800F300503E9C0E0126F
:100ADF00083B300503D0E0F9D0E0B53ECC30051728
:100AEF007F30B9100C12083B7F583004077F788095
:100AFF0003B9080312083B3002057F2D02083B7F24
:100B0F00202008F87F2B2006F322920280CF286E38
:100B1F00756C6C2900D2011208003001F8C20178FF
:100B2F003E30D50108F60208A62D50434958120849
:100B3F00002403B405004001E4900B389312082CF5
:0D0B4F00743A12082CD203753E0402098B83
:100FF000020E92E493A3F8E493A34003F68001F277
:1010000008DFF48029E493A3F85407240CC8C33301
:10101000C4540F4420C8834004F456800146F6DFD0
:10102000E4800B0102040810204080901171E47EDE
:10103000019360BCA3FF543F30E509541FFEE493C5
:10104000A360010ECF54C025E060A840B8E493A38C
:10105000FAE493A3F8E493A3C8C582C8CAC583CAB7
:10106000F0A3C8C582C8CAC583CADFE9DEE780BE6F
:01117B000073
:100C6B00BB010CE58229F582E5833AF583E022503E
:100C7B0006E92582F8E622BBFE06E92582F8E22288
:0D0C8B00E58229F582E5833AF583E49322A2
:100C9800BB010689828A83F0225002F722BBFE013B
:020CA800F32235
:100CAA00FAE6FB0808E6F925F0F618E6CA3AF6224B
:100CBA00D083D082F8E4937012740193700DA3A3C9
:100CCA0093F8740193F5828883E4737402936860DD
:060CDA00EFA3A3A380DFDD
:10109800EFB40A07740D1210A3740A309811A899B6
:1010A800B8130CC2983098FDA899C298B811F630B8
:0710B80099FDC299F5992290
:00000001FF
